:020000040000FA
:0400000074EF00F0A9
:020004000000FA
:040008000EEF00F007
:0800180052EF00F065EC00F06E
:10002000000E00622CEF00F0010E01628D92010EB5
:1000300001648D828D800000012AD8B0002A020E52
:10004000006232EF00F00D0E016246EF00F000009A
:10005000006A016A4CEF00F0000056EC05F08D805C
:100060001CEF00F0000E006238EF00F040EF00F0EF
:1000700056EC05F05CEC05F05CEC05F050EF00F0A0
:100080005CEC05F071EC05F050EF00F05FEC05F072
:1000900058EC05F050EF00F05FEC05F071EC05F066
:1000A0008D90110011009290929292949690969257
:1000B00095809582958495869588958A1200D09E24
:1000C000A00EF26E880ED56E1200FE0ED76ECF0E09
:1000D000D66EF2941200006A016A8990899289941E
:1000E000070E026E036A12006BEC00F053EC00F096
:1000F0005FEC00F065EC00F0000E006286EF00F0AF
:10010000230E01647CEF00F090EF00F0020E00621D
:1001100090EF00F0030E01607CEF00F090EF00F034
:10012000000E0062AEEF00F05F0E016472EF01F0AE
:10013000690E0164D6EF00F0910E0164DEEF00F06D
:10014000B90E0164ECEF00F0CD0E0164F9EF00F0A0
:10015000D70E016405EF01F014EF01F0010E00620B
:100160008CEF01F0090E016420EF01F0310E016403
:100170002BEF01F0590E016436EF01F0630E0164BC
:100180003DEF01F08B0E016444EF01F0950E016428
:100190004AEF01F0BD0E016450EF01F0C70E01649B
:1001A00056EF01F000000000D3EF01F0010E0364F0
:1001B0006BEF01F058EC05F0E9EF01F0000E03647D
:1001C00067EF01F0020E03649FEF01F05FEC05F0B2
:1001D00056EC05F058EF02F0000E036462EF01F0F8
:1001E000030E03649BEF01F071EC05F000009BEF40
:1001F00002F0000E03645EEF01F0040E036496EF5C
:1002000001F058EC05F058EF02F0000E0000036416
:100210005CEF01F0040E03640AEF02F0050E0364C4
:1002200058EF02F09BEF02F0000E0364AAEF01F01A
:10023000040E036424EF02F0000000007AEF02F0E5
:10024000000E036484EF01F0060E0364A6EF01F0D4
:100250000000BBEF02F0000E03647EEF01F0070E1A
:1002600000000364A4EF01F0DEEF02F0000E03646F
:1002700078EF01F000003CEF02F0000E03643EEF67
:1002800004F0000008EF03F0000E03647CEF04F0BC
:100290004CEF03F0000E0364C1EF04F099EF03F09C
:1002A000000E0364EFEF04F0CEEF03F0000E0364E2
:1002B00026EF05F00DEF04F0AAEF01F056EC05F083
:1002C000AAEF01F058EC05F00000AAEF01F071EC84
:1002D00005F0AAEF01F05FEC05F056EC05F0000028
:1002E000AAEF01F071EC05F071EC05F0AAEF01F056
:1002F0005FEC05F05CEC05F0D3EF01F071EC05F07C
:100300005FEC05F0D3EF01F071EC05F056EC05F071
:100310005CEC05F0D3EF01F071EC05F071EC05F049
:100320005FEC05F0D3EF01F00AEF02F000000000EF
:1003300000000AEF02F058EC05F00AEF02F05FEC63
:1003400005F000000AEF02F03CEF02F056EC05F079
:100350003CEF02F067EC05F067EC05F067EC05F0A8
:1003600067EC05F00000000083CF03F00F0E0316CA
:1003700083B8C1EF01F083BAC7EF01F00000CAEF04
:1003800001F0020E026E00000000CAEF01F0010E43
:10039000026E000071EC05F071EC05F058EC05F010
:1003A00000007CEF00F067EC05F067EC05F067EC0F
:1003B00005F071EC05F071EC05F071EC05F071ECF5
:1003C00005F05FEC05F05FEC05F05FEC05F07CEF0D
:1003D00000F05FEC05F05FEC05F058EC05F0000074
:1003E000896E67EC05F067EC05F071EC05F071ECD7
:1003F00005F0000000000000896A67EC05F071EC70
:1004000005F071EC05F071EC05F000000000000053
:100410007CEF00F058EC05F058EC05F0000000000F
:10042000896E000000000000896A67EC05F067EC47
:1004300005F067EC05F067EC05F071EC05F05FEC9A
:1004400005F000007CEF00F058EC05F058EC05F0EA
:100450000000896E000000000000896A67EC05F06A
:1004600067EC05F067EC05F067EC05F071EC05F062
:1004700071EC05F07CEF00F058EC05F058EC05F05D
:1004800056EC05F002C089FF000000000000896AF8
:1004900067EC05F067EC05F067EC05F067EC05F03C
:1004A0005FEC05F05FEC05F05FEC05F07CEF00F031
:1004B0005FEC05F0000002C089FF000000000000B2
:1004C000896A67EC05F067EC05F05FEC05F05CEC21
:1004D00005F0896E000000000000896A67EC05F0F5
:1004E00071EC05F071EC05F05FEC05F056EC05F0F1
:1004F0007CEF00F05FEC05F002C089FF0000000017
:100500000000896A67EC05F067EC05F05FEC05F028
:100510005CEC05F0896E000000000000896A67EC61
:1005200005F05FEC05F05FEC05F05FEC05F05FECCB
:1005300005F07CEF00F05CEC05F002C089FF0000E4
:1005400000000000896A67EC05F067EC05F058ECE4
:1005500005F0896E5FEC05F05FEC05F058EC05F0F6
:10056000896A67EC05F071EC05F05FEC05F056EC7C
:1005700005F07CEF00F05FEC05F058EC05F058EC6E
:1005800005F0896E000000000000896A67EC05F044
:1005900067EC05F058EC05F0896E5FEC05F05FEC58
:1005A00005F058EC05F0896A67EC05F071EC05F090
:1005B00071EC05F05FEC05F07CEF00F058EC05F015
:1005C00058EC05F056EC05F00000896E00000000C4
:1005D0000000896A67EC05F067EC05F058EC05F05F
:1005E000896E000000000000896A5FEC05F05CEC99
:1005F00005F0896E000000000000896A67EC05F0D4
:1006000071EC05F071EC05F05FEC05F07CEF00F0AB
:100610005FEC05F056EC05F002C089FF0000000019
:100620000000896A67EC05F067EC05F056EC05F010
:10063000050E896E000000000000896A5CEC05F080
:100640005CEC05F0050E896E000000000000896A70
:1006500056EC05F00000050E896E00000000000059
:10066000896A5CEC05F05CEC05F0050E896E000013
:1006700000000000896A56EC05F00000050E896E46
:100680005FEC05F05FEC05F058EC05F0896A0000BE
:10069000000000007CEF00F0000056EC05F056EC86
:1006A00005F0000002C089FF000000000000896A18
:1006B00067EC05F067EC05F056EC05F0050E896E69
:1006C000000000000000896A5CEC05F05CEC05F0BD
:1006D000050E896E000000000000896A56EC05F0E6
:1006E0000000050E896E000000000000896A5CECC5
:1006F00005F05CEC05F0050E896E000000000000BE
:10070000896A56EC05F00000050E000000000000AC
:100710000000896A5CEC05F05CEC05F0050E896E62
:10072000000000000000896A0000000000007CEF6B
:1007300000F058EC05F0000002C089FF0000000046
:100740000000896A67EC05F067EC05F056EC05F0EF
:10075000050E896E5FEC05F05FEC05F058EC05F0D6
:10076000896A56EC05F00000050E896E5FEC05F015
:100770005FEC05F058EC05F0896A56EC05F00000D6
:10078000050E896E5FEC05F05FEC05F058EC05F0A6
:10079000896A0000000000007CEF00F0000000000B
:1007A0000000000002C089FF000000000000896A0C
:1007B00067EC05F067EC05F071EC05F071EC05F005
:1007C00056EC05F0050E896E000000000000896AF5
:1007D00071EC05F071EC05F056EC05F00000050E2B
:1007E000896E000000000000896A56EC05F00000E8
:1007F000050E0000000000000000896A5CEC05F0B6
:100800005CEC05F0050E896E000000000000896AAE
:100810000000000000007CEF00F002C089FF5FECE8
:1008200005F0896A67EC05F067EC05F071EC05F0FE
:100830005FEC05F0050E896E000000000000896A7B
:1008400071EC05F071EC05F056EC05F00000050EBA
:10085000896E000000000000896A56EC05F0000077
:10086000050E896E5FEC05F05FEC05F058EC05F0C5
:10087000896A0000000000007CEF00F067EC05F0E2
:1008800067EC05F071EC05F071EC05F056EC05F045
:10089000050E896E000000000000896A5CEC05F01E
:1008A0005CEC05F0050E896E000000000000896A0E
:1008B00056EC05F00000050E896E000000000000F7
:1008C000896A5CEC05F05CEC05F0050E896E0000B1
:1008D00000000000896A56EC05F00000050E896EE4
:1008E00071EC05F05FEC05F056EC05F0896A00004C
:1008F000000000007CEF00F067EC05F067EC05F00D
:100900005FEC05F05FEC05F056EC05F0050E896E26
:10091000000000000000896A5CEC05F05CEC05F06A
:10092000050E896E000000000000896A56EC05F093
:100930000000050E896E000000000000896A5CEC72
:1009400005F05CEC05F0050E896E0000000000006B
:10095000896A56EC05F00000050E896E0000000063
:100960000000896A5CEC05F05CEC05F0050E896E10
:10097000000000000000896A0000000000007CEF19
:1009800000F067EC05F067EC05F071EC05F05CEC4D
:1009900005F0050E896E5FEC05F05FEC05F058EC94
:1009A00005F0896A56EC05F00000050E896E5FECD3
:1009B00005F05FEC05F058EC05F0896A56EC05F09F
:1009C0000000050E896E5FEC05F05FEC05F058EC59
:1009D00005F0896A0000000000007CEF00F067EC81
:1009E00005F067EC05F071EC05F071EC05F05FECDB
:1009F00005F058EC05F0050E896E000000000000BF
:100A0000896A71EC05F071EC05F056EC05F0000018
:100A1000050E896E000000000000896A56EC05F0A2
:100A20000000050E896E000000000000896A5CEC81
:100A300005F05CEC05F0050E896E0000000000007A
:100A4000896A0000000000007CEF00F067EC05F010
:100A500067EC05F071EC05F05FEC05F05FEC05F07C
:100A600056EC05F0050E896E000000000000896A52
:100A700071EC05F071EC05F056EC05F00000050E88
:100A8000896E000000000000896A56EC05F0000045
:100A9000050E896E5FEC05F05FEC05F058EC05F093
:100AA000896A0000000000007CEF00F000001200E6
:100AB000000000000250120056EC05F0120056EC47
:100AC00005F00000120071EC05F0000012005FEC70
:100AD00005F05FEC05F05FEC05F056EC05F0025018
:0A0AE000120058EC05F0025012005D
:020000040030CA
:0100010006F8
:010003001EDE
:010005008179
:00000001FF
