:020000040000FA
:0400000044EF00F0D9
:020004000000FA
:040008000DEF00F008
:0800180011003EEC00F0032A88
:10002000052A096A122AD8B0132A1100006A016A47
:10003000046A076A066A056A7E0EE96E000EEA6EB9
:10004000040EEE6E480EEE6E1200948E948C949414
:100050009482948093929390956A8C6A8A6A120033
:10006000D09EA00EF26E880ED56E1200260EAC6EDB
:10007000900EAB6E810EAF6EB86A12003C0ED76E5A
:10008000B00ED66EF294120016EC00F025EC00F0E3
:1000900030EC00F036EC00F03EEC00F09EBAA3EF3E
:1000A00000F0046638EF01F0076652EF01F01466C5
:1000B0005BEF01F082B278EF00F00C6A0C6682EF21
:1000C00000F00A6666EF00F082EF00F0020E0364B3
:1000D00082EF00F00A6A82A282EF00F0EE0EAD6EAF
:1000E0001468126A136A076A046A0C6882EF00F0E7
:1000F0000C6682EF00F00A6666EF00F0036A0A6899
:1001000082EF00F082B099EF00F00D6A0D664EEFBD
:1001100000F00B668EEF00F04EEF00F0020E03646D
:100120004EEF00F00B6A82A04EEF00F00D68CEEFAC
:1001300000F00D664EEF00F00B668EEF00F0036AE4
:100140000B684EEF00F0146A046A800EE96E000E30
:10015000EA6EAECF02F0AA0E0262CCEF00F0020E01
:10016000016E006AEE0EAD6E9EAAB4EF00F0AECF47
:1001700002F0FF0E0262C5EF00F0130E076E8C6AEC
:100180008A6AFF0EAD6E4EEF00F0012AD8B0002A49
:1001900002C0EEFFB2EF00F0EE0EAD6E146A046A1C
:1001A0000166DDEF00F00066DDEF00F0030E8C6EFF
:1001B0008A6A0468076A4EEF00F06BEC01F08C6A03
:1001C0008A6A116A000EEA6E7E0EE96EEECF02F0C8
:1001D00032EC01F00236D8B0F0EF00F02CEC01F078
:1001E000010E106E0E6A0F6A00500F62FCEF00F0F5
:1001F00001500E6024EF01F00236D8A006EF01F0A6
:100200002CEC01F032EC01F00AEF01F032EC01F0DD
:100210002CEC01F0102A080E1062FCEF00F0106ABE
:100220000E2AD8B00F2AEECF02F0112A1150086220
:10023000F4EF00F083AE1FEF01F08A8E8A468C8EB9
:100240008C46116AF4EF00F02CEC01F08A688C689F
:10025000090E076E4EEF00F0096809662DEF01F0F8
:100260008B9412000968096633EF01F08B84120049
:10027000060E05645AEF00F0066649EF01F0066AC3
:1002800081B249EF01F08C36D8B08A36056A5AEF50
:1002900000F0066883B03FEF01F08A328C32056AC5
:1002A0005AEF00F0075005645AEF00F08C1E8A1ECA
:1002B000056A5AEF00F0D00E12625AEF00F0070EF6
:1002C00013625AEF00F0146A030E8C6E8A6A046897
:1002D000076A5AEF00F00150020FD8B0002A330D20
:0C02E000F45000B0330F086E083212001A
:020000040030CA
:0100010006F8
:010003001EDE
:010005008179
:00000001FF
