:020000040000FA
:040000002CEF00F0F1
:020004000000FA
:040008000DEF00F008
:0800180011001100006A016AE9
:100020001200948E948C9482948093929390956A0B
:100030001200D09EA00EF26E880ED56E260EAC6E0B
:10004000900EAB6EB86A810EAF6E12003C0ED76E8A
:10005000B00ED66EF29412000EEC00F011EC00F02F
:1000600019EC00F026EC00F09EBA41EF00F082B2ED
:1000700049EF00F0026A82B049EF00F0036A34EF02
:1000800000F0AECF04F0FF0E046249EF00F049EF3C
:1000900000F0000EEA6E800EE96E006A016AFF0E43
:1000A000AD6E9EAA51EF00F0AECF04F0FF0E0462D9
:1000B0005BEF00F034EF00F0012AD8B0002A04C052
:0A00C000EEFFFF0EAD6E51EF00F0F1
:020000040030CA
:0100010006F8
:010003001EDE
:010005008179
:00000001FF
